:100000000C9464000C948C000C948C000C948C0068
:100010000C948C000C948C000C948C000C94DB04DD
:100020000C948C000C948C000C948C000C948C0020
:100030000C948C000C948C000C948C000C948C0010
:100040000C945A090C948C000C948B0B0C94CE0BD2
:100050000C948C000C948C000C948C000C948C00F0
:100060000C9425030C948C00000000070002010092
:100070000003040600000000000000000102040864
:100080001020408001020408102001020408102002
:10009000040404040404040402020202020203032E
:1000A00003030303000000002300260029000000D2
:1000B0000000250028002B0000000000240027007D
:1000C0002A0074023E098A0C11241FBECFEFD8E02B
:1000D000DEBFCDBF11E0A0E0B1E0E6E6F2E202C093
:1000E00005900D92A03BB107D9F713E0A0EBB1E06A
:1000F00001C01D92A535B107E1F710E0C8ECD0E0D2
:1001000004C02297FE010E942D11C23CD107C9F7FD
:100110000E94DD0E0C9431110C940000FC0113823E
:10012000128284E191E091838083648341872287F6
:10013000138608951F93CF93DF93EC01162F6C81E4
:1001400080EB91E00E945402E091B001F091B10186
:100150006B85612B0190F081E02D80EB91E009959A
:1001600080EB91E0DF91CF911F910C94710228E018
:10017000FC01238760E00C949A001F93CF93DF93D8
:10018000EC01162F64600E949A0081E090E00E94CA
:10019000ED09612F6B7FCE010E949A0082E390E00F
:1001A000DF91CF911F910C94ED091F93CF93DF93B3
:1001B000EC01162F0E949A00612FCE01DF91CF91A2
:1001C0001F910C94BD00EF92FF921F93CF93DF938A
:1001D0001F92CDB7DEB77C01162F607F642B498359
:1001E0000E94D50080E1189FB00111244981642B41
:1001F000C7010F90DF91CF911F91FF90EF900C946A
:10020000D50041E00E94E30081E090E0089540E0E5
:100210000C94E30061E00E94070180ED97E00C94EC
:10022000ED0962E00E94070180ED97E00C94ED0972
:10023000CF93DF93CDB7DEB728970FB6F894DEBF24
:100240000FBECDBF28E0E8E0F1E0DE01119601909D
:100250000D922A95E1F7FC012085241710F44FEF49
:10026000420FFE013196E40FF11DE40FF11D2081D4
:10027000260F2068622F28960FB6F894DEBF0FBEB7
:10028000CDBFDF91CF910C940701FC016681262F31
:10029000246026836C600C940701CF93DF93EC01FC
:1002A000423018F08D8188608D834887222329F0A1
:1002B000413019F48D8184608D8362E370E080E0C9
:1002C00090E00E94C7096B85CE010E949A0068EEFB
:1002D00073E080E090E00E94C70960E3CE010E94D5
:1002E000D50084E991E10E94ED0960E3CE010E940E
:1002F000D50084E991E10E94ED0960E3CE010E94FE
:10030000D50086E990E00E94ED0960E2CE010E94EE
:10031000D5006D816062CE010E94070184E08E836A
:10032000CE010E944501CE010E940A0182E08F8326
:1003300066E0CE010E940701CE01DF91CF910C94BF
:100340001101CF93DF93EC0180EB91E00E944A0210
:100350001D8220E04A856985CE01DF91CF910C9402
:100360004D010C94A1018091E00190E02091E10108
:10037000821B910908952091E1018091E0012817E5
:1003800050F4E22FF0E0EE51FE4F808190E02F5FBD
:100390002093E10108958FEF9FEF0895E091E1012F
:1003A0008091E001E81730F4F0E0EE51FE4F8081DB
:1003B00090E008958FEF9FEF08950895CF92DF9218
:1003C000EF92FF920F931F93CF93DF937C01CB01AA
:1003D0008A012091BC01222389F0EB016B01C40E3C
:1003E000D51ECC15DD0569F06991D701ED91FC9121
:1003F0000190F081E02DC7010995F3CF642F0E9491
:10040000ED02C801DF91CF911F910F91FF90EF9006
:10041000DF90CF900895CF93DF931F92CDB7DEB7D3
:1004200069832091BC012223D1F02091BD012032AB
:1004300040F021E030E0FC013383228380E090E053
:1004400015C08091BE01E82FF0E0E154FE4F998184
:1004500090838F5F8093BE018093BD0105C061E0F2
:10046000CE0101960E94ED0281E090E00F90DF91B5
:10047000CF910895FC011382128248EE53E060E0B0
:1004800070E044835583668377838CE191E09183A8
:10049000808308951092E1011092E0011092BE0154
:1004A0001092BD010C94780281E08093BC016093AE
:1004B000DF011092BE011092BD0108950F93062F27
:1004C00021E04091BD016FEB71E08091DF010E945E
:1004D00096021092BE011092BD011092BC010F91C4
:1004E000089561E00C945E0280EB91E00C943A0276
:1004F00010926F0281E080936D0210926C0261E0B5
:1005000082E10E94940A61E083E10E94940AE9EB8F
:10051000F0E080818E7F808380818D7F808388E47E
:100520008093B80085E48093BC0008950F93413216
:1005300008F04AC090916F029111FCCF92E0909325
:100540006F0200936D029FEF909302021092470298
:1005500040934602FB0168E472E0DB019A2F961B90
:10056000941718F491919D93F9CF10926E02909187
:100570006E02880F892B80936E0280916C0281300D
:1005800061F410926C0280916E028093BB008091A6
:10059000BC0083FDF8CF85EC01C085EE8093BC00E4
:1005A000222321F080916F028230E1F380910202D8
:1005B0008F3F61F080910202803251F080910202FF
:1005C000803341F483E007C081E005C080E003C0D0
:1005D00082E001C084E00F91089540912402262F0B
:1005E00030E0240F311D21323105DCF420916F02FF
:1005F0002430C9F4FC0180E090E0861758F4309173
:1006000024022191DC01AA5DBD4FA30FB11D2C93E3
:100610000196F3CF80912402860F8093240280E01C
:10062000089581E0089582E0089585ED8093BC00EF
:100630008091BC0084FDFCCF10926F02089585EC80
:100640008093BC0010926F0208951F920F920FB614
:100650000F9211242F933F934F935F936F937F9348
:100660008F939F93AF93BF93EF93FF938091B900C4
:10067000887F803609F49EC078F5883209F45DC021
:1006800090F4803109F456C038F4882309F4F5C099
:10069000883009F44FC0F5C0883109F44EC080326B
:1006A00009F45FC0EEC0803409F46AC058F48033A6
:1006B00009F457C0883309F0E4C0809302020E9415
:1006C0001F03DFC0803509F44FC0883509F45DC0D1
:1006D000883409F0D6C0D3C0883909F4C4C0A8F45E
:1006E000883709F467C038F4883609F463C0803766
:1006F00009F460C0C6C0883809F4B5C0803909F46F
:100700005FC0803809F0BDC05BC0803B09F483C086
:1007100038F4803A09F466C0883A09F47CC0B1C064
:10072000803C09F4A4C0883C09F4A1C0883B09F4CA
:1007300087C0A7C080916E0210C09091470280913F
:100740004602981770F5E091470281E08E0F809382
:100750004702F0E0E85BFD4F80818093BB0085ECB1
:1007600083C0809302028BC0E091470281E08E0F2C
:10077000809347028091BB00F0E0E85BFD4F8083EF
:1007800090914702809146026BC0E091470281E060
:100790008E0F809347028091BB00F0E0E85BFD4F35
:1007A000808380916D0281116AC081E080936C0228
:1007B00084EA5EC083E080936F0210920302CFCF81
:1007C00080910302803208F04EC0E091030281E084
:1007D0008E0F809303028091BB00F0E0EC5FFD4F31
:1007E0008083BDCF0E941F0380910302803230F4CA
:1007F000E0910302F0E0EC5FFD4F10826091030294
:1008000070E0E0916802F091690284E092E009955D
:100810001092030236C084E080936F02109225028A
:1008200010922402E0916A02F0916B020995809186
:100830002402811105C081E08093240210922602D7
:10084000E091250281E08E0F80932502F0E0EA5DC1
:10085000FD4F80818093BB009091250280912402FE
:10086000981708F47CCF85E88093BC000AC085EC1B
:100870008093BC0010926F0204C0109202020E948A
:100880001503FF91EF91BF91AF919F918F917F9150
:100890006F915F914F913F912F910F900FBE0F90ED
:1008A0001F901895009709F474C01092710210926D
:1008B00070021092750210927402109280021092CF
:1008C0008102109282021092830210927B02209188
:1008D000800020937A022091810020937902109267
:1008E000810010928000109285001092840021E017
:1008F00026BB10926F002091B000209378022091C7
:10090000B100209377021092B10022E02093B00052
:100910009C0127703327232B51F443E0969587954C
:100920004A95E1F72CE72093B30027E018C09C011B
:1009300023703327232B31F49695879596958795C9
:1009400029EF05C080FD07C0969587952CE7209379
:10095000B30026E004C02CE72093B30025E02093E9
:10096000760222E027BB1092B2009093730280932C
:1009700072029FB7F89423BD809176028093B100F4
:10098000209370008BE08150F1F787E08093810025
:100990009FBF089580917B0208952FB7F8946091CE
:1009A0007C0270917D0280917E0290917F02109274
:1009B0007B022FBF08951F920F920FB60F92112442
:1009C0000F931F932F933F934F935F936F937F9357
:1009D0008F939F93AF93BF93409184005091850074
:1009E0008091740290917502B09B13C021E026BBE8
:1009F0009C012F5F3F4F41150AEF500730F4C901AA
:100A0000309375022093740204C0309375022093D2
:100A1000740220917002309171022F5F3F4F6091FC
:100A20007202709173022617370778F110927102E3
:100A300010927002A0E0B0E0DC0199278827840FB3
:100A4000951FA11DB11D40918002509181026091BE
:100A50008202709183028C019D01041B150B260BF1
:100A6000370B00937C0210937D0220937E0230931B
:100A70007F028093800290938102A0938202B093C0
:100A8000830281E080937B0204C030937102209343
:100A90007002BF91AF919F918F917F916F915F9104
:100AA0004F913F912F911F910F910F900FBE0F907B
:100AB0001F90189586E992E00E94B10186E992E0C4
:100AC0000E94B10186E992E00E94B7001AB81BB8F3
:100AD00010BE10927B0040E855E260E070E08BEAC7
:100AE00092E00E94090C60E084E00E945B0A61E0F1
:100AF00083E00E945B0A60E082E00E945B0A88EE6D
:100B000093E00C94520484E00E94CA0A019799F47D
:100B100080910001909101010196909301018093D1
:100B20000001109289021092880264E670E080E071
:100B300090E00E94C70941E060E086E992E00E94EF
:100B400018018091000190910101019709F58091B0
:100B5000880290918902019690938902809388027D
:100B6000019721F484E690E00E9452048FEF9FEFFA
:100B7000909387028093860268E271E086E992E0B2
:100B80000E941E0D60E371E08BEA92E00E941E0D50
:100B90008091000190910101029709F580918802EE
:100BA000909189020196909389028093880201971F
:100BB00021F480E197E20E94520481E090E090935A
:100BC00087028093860269E371E086E992E00E94E1
:100BD0001E0D60E471E08BEA92E00E941E0D809190
:100BE0000001909101010397F9F48091880290919E
:100BF000890201969093890280938802019721F4DB
:100C000088EE93E00E9452041092870210928602AE
:100C100068E471E086E992E00E941E0D6EE471E0E6
:100C20008BEA92E00E941E0D8091000190910101DB
:100C3000049734F081E090E09093010180930001EB
:100C400040E060E086E992E00E94180165E571E00D
:100C500086E992E00E941E0D65E571E08BEA92E064
:100C60000E941E0D60918E0270918F028091900201
:100C700090919102603422E472072FE0820791057F
:100C800008F441C020910001309101012330310569
:100C9000D1F50E94EC0F20E034E244E759E40E94D1
:100CA000530FAB01BC0140938A0250938B026093B7
:100CB0008C0270938D0220918602309187022A5F08
:100CC0003F4F86E992E00E94DB0E20918602309130
:100CD00087022A5F3F4F40918A0250918B026091B8
:100CE0008C0270918D028BEA92E00E94DB0E68E527
:100CF00071E086E992E00E941E0D6DE571E08BEADD
:100D000092E00E941E0D60918E0270918F02809180
:100D1000900290919102603422E472072FE08207E2
:100D2000910508F041C0209100013091010123306C
:100D30003105D1F50E94EC0F20E030E04AE754E4A1
:100D40000E94530FAB01BC0140938A0250938B0267
:100D500060938C0270938D022091860230918702FD
:100D60002D5F3F4F86E992E00E94DB0E20918602C4
:100D7000309187022D5F3F4F40918A0250918B0244
:100D800060918C0270918D028BEA92E00E94DB0EE2
:100D900063E671E086E992E00E941E0D68E671E06C
:100DA0008BEA92E00E941E0D60918E0270918F027C
:100DB0008091900290919102603A26E8720721E0BA
:100DC0008207910508F441C0209100013091010192
:100DD00021303105D1F50E94EC0F20E030E543ECE5
:100DE00057E40E94530FAB01BC0140938A02509319
:100DF0008B0260938C0270938D0220918602309159
:100E000087022A5F3F4F86E992E00E94DB0E209125
:100E10008602309187022D5F3F4F40918A025091A8
:100E20008B0260918C0270918D028BEA92E00E949D
:100E3000DB0E68E571E086E992E00E941E0D6DE52B
:100E400071E08BEA92E00E941E0D60918E0270911B
:100E50008F028091900290919102603A26E8720789
:100E600021E08207910508F041C0209100013091F6
:100E7000010121303105D1F50E94EC0F20E030E076
:100E800048EC52E40E94530FAB01BC0140938A022C
:100E900050938B0260938C0270938D022091860296
:100EA000309187022D5F3F4F86E992E00E94DB0E72
:100EB00020918602309187022D5F3F4F40918A0238
:100EC00050918B0260918C0270918D028BEA92E0BE
:100ED0000E94DB0E63E671E086E992E00E941E0D3F
:100EE00068E671E08BEA92E00E941E0D60918E022E
:100EF00070918F028091900290919102603826E962
:100F0000720728E98207910508F441C02091000189
:100F10003091010122303105D1F50E94EC0F20E81B
:100F200036E948E15BE40E94530FAB01BC014093FA
:100F30008A0250938B0260938C0270938D022091F1
:100F40008602309187022A5F3F4F86E992E00E9435
:100F5000DB0E20918602309187022A5F3F4F40913D
:100F60008A0250918B0260918C0270918D028BEA03
:100F700092E00E94DB0E68E571E086E992E00E9453
:100F80001E0D6DE571E08BEA92E00E941E0D6091EE
:100F90008E0270918F028091900290919102603840
:100FA00026E9720728E98207910508F041C02091DF
:100FB00000013091010122303105D1F50E94EC0F82
:100FC00020E030E44CE156E40E94530FAB01BC0139
:100FD00040938A0250938B0260938C0270938D022F
:100FE00020918602309187022D5F3F4F86E992E083
:100FF0000E94DB0E20918602309187022D5F3F4FC9
:1010000040918A0250918B0260918C0270918D0206
:101010008BEA92E00E94DB0E63E671E086E992E0E3
:101020000E941E0D68E671E08BEA92E00E941E0DA0
:101030000E94CA048823E1F00E94CD0460938E02CE
:1010400070938F02809390029093910241E06AE046
:1010500086E992E00E9418016EE671E086E992E06E
:101060000E941E0D62E771E08BEA92E00E941E0D65
:1010700062E370E080E090E00E94C70986E992E0B8
:101080000C940A014F925F926F927F928F929F927F
:10109000AF92BF92CF92DF92EF92FF9261E083E036
:1010A0000E94940A64E670E080E090E00E94C70924
:1010B00060E083E00E94940A2091020130910301D4
:1010C000C12CD12C760180B790E082239323892B09
:1010D00041F080E4C81682E4D8068FE0E806F10407
:1010E00051F50E94A4092B013C012091020130918D
:1010F000030180B790E082239323892B41F480E49D
:10110000C81682E4D8068FE0E806F104D1F480B76F
:1011100090E082239323892BD1F080E4C81682E4E7
:10112000D8068FE0E806F10491F08FEFC81AD80ACC
:10113000E80AF80AECCF8FEFC81AD80AE80AF80ACA
:10114000C2CF8FEFC81AD80AE80AF80AD2CF0E9495
:10115000A4098090920290909302A0909402B09083
:10116000950220E4C21622E4D2062FE0E206F10442
:10117000F1F440E064E086E992E00E94180168E73B
:1011800071E086E992E00E941E0D60E871E08BEA52
:1011900092E0FF90EF90DF90CF90BF90AF909F9044
:1011A0008F907F906F905F904F900C943B0D6419DF
:1011B00075098609970964507109810991090E948E
:1011C000EC0F9B01AC010E94A2106B017C0120E09E
:1011D00030E040E850E4C501B4010E94A2102DECBB
:1011E0003CEC4CE050E40E94A2109B01AC01C70112
:1011F000B6010E94530F6B017C0140E064E086E978
:1012000092E00E94180123E030E0B701A60186E9D0
:1012100092E00E94DB0E6AE871E086E992E00E94AB
:101220001E0D23E030E0B701A6018BEA92E00E9498
:10123000DB0E6DE871E08BEA92E00E943B0D61E00D
:1012400070E080E090E0FF90EF90DF90CF90BF9053
:10125000AF909F908F907F906F905F904F900C9485
:10126000C70982E00E94CA0A909385028093840293
:10127000019711F40C9483050C94420822E040E19C
:1012800067E286E992E00E948E006091040170910D
:10129000050180910601909107019B01AC010E941C
:1012A000A2106093920270939302809394029093A1
:1012B000950208951F920F920FB60F9211242F934B
:1012C0003F938F939F93AF93BF938091A30290918D
:1012D000A402A091A502B091A6023091A20223E03F
:1012E000230F2D3720F40196A11DB11D05C026E85E
:1012F000230F0296A11DB11D2093A2028093A30289
:101300009093A402A093A502B093A6028091A70295
:101310009091A802A091A902B091AA020196A11DE4
:10132000B11D8093A7029093A802A093A902B09345
:10133000AA02BF91AF919F918F913F912F910F90F2
:101340000FBE0F901F9018953FB7F8948091A70299
:101350009091A802A091A902B091AA0226B5A89BDB
:1013600005C02F3F19F00196A11DB11D3FBF662793
:10137000782F892F9A2F620F711D811D911D42E0D8
:10138000660F771F881F991F4A95D1F70895CF924E
:10139000DF92EF92FF92CF93DF936B017C010E946B
:1013A000A409EB01C114D104E104F10479F00E9415
:1013B000A4096C1B7D0B683E7340A0F381E0C81A42
:1013C000D108E108F108C851DC4FECCFDF91CF9193
:1013D000FF90EF90DF90CF900895019739F0880F3C
:1013E000991F880F991F02970197F1F70895789434
:1013F00084B5826084BD84B5816084BD85B582601A
:1014000085BD85B5816085BDEEE6F0E080818160B7
:101410008083E1E8F0E010828081826080838081B7
:1014200081608083E0E8F0E0808181608083E1EB8F
:10143000F0E0808184608083E0EBF0E08081816077
:101440008083EAE7F0E0808184608083808182602D
:101450008083808181608083808180688083109216
:10146000C1000895833081F028F4813099F08230F2
:10147000A1F008958630A9F08730B9F08430D1F416
:10148000809180008F7D03C0809180008F77809352
:101490008000089584B58F7702C084B58F7D84BDA8
:1014A00008958091B0008F7703C08091B0008F7D48
:1014B0008093B0000895CF93DF9390E0FC01E4584F
:1014C000FF4F2491FC01E057FF4F8491882349F19D
:1014D00090E0880F991FFC01E854FF4FA591B4914B
:1014E00082559F4FFC01C591D4919FB7611108C0EF
:1014F000F8948C91209582238C93888182230AC052
:10150000623051F4F8948C91322F309583238C9370
:101510008881822B888304C0F8948C91822B8C93D1
:101520009FBFDF91CF9108950F931F93CF93DF93C8
:101530001F92CDB7DEB7282F30E0F901E859FF4FF1
:101540008491F901E458FF4F1491F901E057FF4FDE
:1015500004910023C9F0882321F069830E94320A94
:101560006981E02FF0E0EE0FFF1FE255FF4FA591DC
:10157000B4919FB7F8948C91611103C010958123A9
:1015800001C0812B8C939FBF0F90DF91CF911F9152
:101590000F910895CF93DF93282F30E0F901E85998
:1015A000FF4F8491F901E458FF4FD491F901E057BE
:1015B000FF4FC491CC2391F081110E94320AEC2F8D
:1015C000F0E0EE0FFF1FEC55FF4FA591B4912C9169
:1015D0002D2381E090E021F480E002C080E090E0E3
:1015E000DF91CF910895FC0124853585F901E05CF8
:1015F000FF4F80819181F901EE5BFF4F20813181A6
:10160000821B930B8F7399270895FC018485958520
:10161000FC01E05CFF4F40815181FC01EE5BFF4F1C
:10162000208131814217530741F00190F081E02D74
:10163000E80FF91F808190E008958FEF9FEF0895E4
:10164000FC0184859585FC01E05CFF4F4081518160
:10165000FC01EE5BFF4F208131814217530779F087
:10166000A081B181A80FB91F8C91208131812F5F9A
:101670003F4F2F7333273183208390E008958FEFFE
:101680009FEF0895FC0181A1882329F0A489B589E1
:101690008C9186FFFBCF11A20895CF93DF93FC01BD
:1016A00026853785D901A05CBF4F8D919C911197FC
:1016B00001968F739927E901CE5BDF4F48815981ED
:1016C00084179507D9F30D90BC91A02DA20FB31FDD
:1016D0006C93A685B785A05CBF4F11969C938E93A3
:1016E000A689B7892C9181E090E0078C02C0880F11
:1016F000991F0A94E2F7282B2C9381E081A3048898
:10170000F589E02D80818064808381E090E0DF9125
:10171000CF91089508951F920F920FB60F92112442
:101720002F933F934F938F939F93EF93FF938091CA
:10173000C00082FD1CC04091C60080915103909171
:10174000520301968F7399272091530330915403CC
:101750008217930771F0E0915103F0915203EF5E0D
:10176000FC4F4083909352038093510302C08091B9
:10177000C600FF91EF919F918F914F913F912F91D3
:101780000F900FBE0F901F9018958BEA92E00E9469
:10179000F30A892B11F00C948A0B08951F920F9273
:1017A0000FB60F9211242F933F938F939F93EF9334
:1017B000FF9320910D0330910E0380910F039091C0
:1017C00010032817390731F48091C1008F7D809371
:1017D000C10014C0E0910F03F0911003E353FD4FDB
:1017E000208180910F039091100301968F739927A8
:1017F0009093100380930F032093C600FF91EF9105
:101800009F918F913F912F910F900FBE0F901F903E
:101810001895CF92DF92EF92FF92CF93DF93EC0176
:101820006A017B01411581EE580761057105F9F0E8
:10183000EC89FD8981E090E008A002C0880F991F23
:101840000A94E2F7808360E079E08DE390E0A701FD
:1018500096010E94091121503109410951095695FB
:10186000479537952795211580E1380798F0EC8941
:10187000FD89108260E874E88EE190E0A70196018E
:101880000E94091121503109410951095695479586
:1018900037952795E889F9893083EA89FB89208380
:1018A00019A2EE89FF89408181E090E09C010C8CB7
:1018B00002C0220F331F0A94E2F7422B4083EE89C5
:1018C000FF8940819C010D8C02C0220F331F0A94B6
:1018D000E2F7422B4083EE89FF8940819C010E8C08
:1018E00002C0220F331F0A94E2F7422B4083EE8995
:1018F000FF8920810F8C02C0880F991F0A94E2F79C
:10190000809582238083DF91CF91FF90EF90DF90CD
:10191000CF9008951092AE021092AD0288EE93E03F
:10192000A0E0B0E08093AF029093B002A093B10228
:10193000B093B20286E991E09093AC028093AB023F
:1019400081E193E09093B8028093B7028DEC92E02E
:101950009093BA028093B90285EC90E09093BC0218
:101960008093BB0284EC90E09093BE028093BD0212
:1019700080EC90E09093C0028093BF0281EC90E0F5
:101980009093C2028093C10282EC90E09093C402D3
:101990008093C30286EC90E09093C6028093C502C8
:1019A00084E08093C70283E08093C80287E080933D
:1019B000C90285E08093CA0281E08093CB0208953A
:1019C000CF92DF92EF92FF920F931F93CF93DF930B
:1019D0006C017A01EB01E60EF71E00E010E0CE1577
:1019E000DF0561F06991D601ED91FC910190F081E4
:1019F000E02DC6010995080F191FF1CFC801DF912D
:101A0000CF911F910F91FF90EF90DF90CF900895AD
:101A10006115710581F0DB010D900020E9F7AD0142
:101A200041505109461B570BDC01ED91FC9102809E
:101A3000F381E02D099480E090E008950C94080D66
:101A4000DC01ED91FC910190F081E02D09940F9360
:101A50001F93CF93DF93EC016DE00E94200D8C016A
:101A60006AE0CE010E94200D800F911FDF91CF917F
:101A70001F910F9108950F931F93CF93DF93EC0164
:101A80000E94080D8C01CE010E94270D800F911F2E
:101A9000DF91CF911F910F9108958F929F92AF92F6
:101AA000BF92CF92DF92EF92FF920F931F93CF934B
:101AB000DF93CDB7DEB7A1970FB6F894DEBF0FBEA8
:101AC000CDBF7C01C42EE52FCB01D22E19A221E07F
:101AD0002D1510F02AE0D22E8E010F5D1F4F8D2C98
:101AE000912CA12CB12C6C2D7E2FA50194010E946C
:101AF00009118C2DD29E80191124015011098A30B0
:101B000014F4805D01C0895CF801808321153105E2
:101B10004105510521F0C22EE32FCA01E4CFB801DF
:101B2000C7010E94080DA1960FB6F894DEBF0FBE44
:101B3000CDBFDF91CF911F910F91FF90EF90DF907C
:101B4000CF90BF90AF909F908F900895CF92DF92EB
:101B5000EF92FF920F931F93CF93DF93EC016A01F3
:101B60007B012115310579F4E881F9810190F0813B
:101B7000E02D642FDF91CF911F910F91FF90EF9097
:101B8000DF90CF9009942A303105E9F477FF1AC02D
:101B90006DE20E94200D8C0144275527BA014C1993
:101BA0005D096E097F092AE0CE010E944D0D800F6C
:101BB000911FDF91CF911F910F91FF90EF90DF90D8
:101BC000CF9008952AE0B701A601CE01DF91CF9111
:101BD0001F910F91FF90EF90DF90CF900C944D0DDF
:101BE0004F925F926F927F928F929F92AF92BF922D
:101BF000CF92DF92EF92FF920F931F93CF93DF93D9
:101C0000EC016A017B01B22E9A01AB01C701B6015A
:101C10000E940511882319F062EA71E027C02601AD
:101C20003701E89477F82FEF3FEF4FE75FE7C30105
:101C3000B2010E94051181110DC02FEF3FEF4FE758
:101C40005FE7C301B2010E944F0F18161CF466EA49
:101C500071E00CC02FEF3FEF4FE75FE4C701B60123
:101C60000E949E101816ACF46AEA71E0CE01DF9172
:101C7000CF911F910F91FF90EF90DF90CF90BF9089
:101C8000AF909F908F907F906F905F904F900C944B
:101C9000080D2FEF3FEF4FE75FECC701B6010E9441
:101CA0004F0F87FDE1CF20E030E0A901C701B60169
:101CB0000E944F0F87FF0AC06DE2CE010E94200DE7
:101CC0008C01F7FAF094F7F8F09402C000E010E00D
:101CD000A12C60E070E080E09FE3AB1441F020E0D5
:101CE00030E040E251E40E94530FA394F6CF9B01F1
:101CF000AC01C701B6010E94EB0E6B017C010E9492
:101D0000C00F2B013C010E94EC0F9B01AC01C701ED
:101D1000B6010E94EA0E6B017C012AE0B301A20128
:101D2000CE010E944D0D080F191FBB2039F06EEA3D
:101D300071E0CE010E94080D080F191F7B2C77203F
:101D400041F120E030E040E251E4C701B6010E94D9
:101D5000A2106B017C010E94BB0F4B01AA2497FCCF
:101D6000A094BA2C2AE030E0B501A401CE010E9473
:101D7000A60D080F191FC501B4010E94EE0F9B01AB
:101D8000AC01C701B6010E94EA0E6B017C017A9496
:101D9000D6CFC801DF91CF911F910F91FF90EF90A7
:101DA000DF90CF90BF90AF909F908F907F906F907B
:101DB0005F904F9008950C94F00D0E94F7090E94D7
:101DC0005A05C5ECDBE00E9431092097E1F30E943F
:101DD000C50BF9CF5058BB27AA270ED075C166D1C5
:101DE00030F06BD120F031F49F3F11F41EF45BC151
:101DF0000EF4E095E7FB51C1E92F77D180F3BA17D4
:101E0000620773078407950718F071F49EF58FC178
:101E10000EF4E0950B2EBA2FA02D0B01B901900105
:101E20000C01CA01A0011124FF27591B99F0593F49
:101E300050F4503E68F11A16F040A22F232F342F91
:101E40004427585FF3CF469537952795A795F040DF
:101E50005395C9F77EF41F16BA0B620B730B840BF4
:101E6000BAF09150A1F0FF0FBB1F661F771F881FAC
:101E7000C2F70EC0BA0F621F731F841F48F4879504
:101E800077956795B795F7959E3F08F0B3CF9395F3
:101E9000880F08F09927EE0F979587950895D9D068
:101EA00008F481E008950CD00FC107D140F0FED0B6
:101EB00030F021F45F3F19F0F0C0511139C1F3C087
:101EC00014D198F39923C9F35523B1F3951B550BFE
:101ED000BB27AA2762177307840738F09F5F5F4FFD
:101EE000220F331F441FAA1FA9F333D00E2E3AF03E
:101EF000E0E830D091505040E695001CCAF729D058
:101F0000FE2F27D0660F771F881FBB1F26173707A6
:101F10004807AB07B0E809F0BB0B802DBF01FF27D6
:101F200093585F4F2AF09E3F510568F0B6C000C13C
:101F30005F3FECF3983EDCF3869577956795B79510
:101F4000F7959F5FC9F7880F911D9695879597F92B
:101F50000895E1E0660F771F881FBB1F62177307A4
:101F60008407BA0720F0621B730B840BBA0BEE1FB9
:101F700088F7E095089504D06894B111D9C0089508
:101F8000BCD088F09F5790F0B92F9927B751A0F097
:101F9000D1F0660F771F881F991F1AF0BA95C9F7FD
:101FA00012C0B13081F0C3D0B1E00895C0C0672F36
:101FB000782F8827B85F39F0B93FCCF386957795AD
:101FC0006795B395D9F73EF4909580957095619596
:101FD0007F4F8F4F9F4F0895E89409C097FB3EF4C1
:101FE00090958095709561957F4F8F4F9F4F992366
:101FF000A9F0F92F96E9BB279395F69587957795E4
:102000006795B795F111F8CFFAF4BB0F11F460FFA3
:102010001BC06F5F7F4F8F4F9F4F16C0882311F0FB
:1020200096E911C0772321F09EE8872F762F05C00F
:10203000662371F096E8862F70E060E02AF09A95AA
:10204000660F771F881FDAF7880F9695879597F99F
:102050000895990F0008550FAA0BE0E8FEEF161639
:102060001706E807F907C0F012161306E407F5078C
:1020700098F0621B730B840B950B39F40A2661F000
:10208000232B242B252B21F408950A2609F4A140A3
:10209000A6958FEF811D811D089597F99F6780E8B0
:1020A00070E060E008959FEF80EC089500240A94AA
:1020B0001616170618060906089500240A94121623
:1020C0001306140605060895092E0394000C11F456
:1020D000882352F0BB0F40F4BF2B11F460FF04C003
:1020E0006F5F7F4F8F4F9F4F089557FD9058440F5C
:1020F000551F59F05F3F71F04795880F97FB991F67
:1021000061F09F3F79F08795089512161306140623
:10211000551FF2CF4695F1DF08C0161617061806B0
:10212000991FF1CF86957105610508940895E8948B
:10213000BB2766277727CB0197F908958ADF08F434
:102140008FEF08950BD0C0CFB1DF28F0B6DF18F0C5
:10215000952309F0A2CFA7CF1124EACFC6DFA0F3C1
:10216000959FD1F3950F50E0551F629FF001729F2C
:10217000BB27F00DB11D639FAA27F00DB11DAA1F4B
:10218000649F6627B00DA11D661F829F2227B00D98
:10219000A11D621F739FB00DA11D621F839FA00D23
:1021A000611D221F749F3327A00D611D231F849F73
:1021B000600D211D822F762F6A2F11249F575040CA
:1021C0008AF0E1F088234AF0EE0FFF1FBB1F661F65
:1021D000771F881F91505040A9F79E3F510570F01E
:1021E0005CCFA6CF5F3FECF3983EDCF38695779506
:1021F0006795B795F795E7959F5FC1F7FE2B880F19
:10220000911D9695879597F9089523DF880B990B73
:102210000895A1E21A2EAA1BBB1BFD010DC0AA1F27
:10222000BB1FEE1FFF1FA217B307E407F50720F03F
:10223000A21BB30BE40BF50B661F771F881F991FBA
:102240001A9469F760957095809590959B01AC0103
:10225000BD01CF010895EE0FFF1F0590F491E02D11
:062260000994F894FFCF81
:1022660003002000DB0F494000004000140054002A
:10227600000000000101E00C000000000B02DE017E
:10228600B301BB01CE01DD01543D302E3120730078
:10229600543D302E3120730A00543D3130207300F6
:1022A600543D313020730A00543D31207300543DB3
:1022B6003120730A00463D00204D487A00204D48E3
:1022C6007A2000206B487A00206B487A20002A2A60
:1022D6002A00202A2A2A200074696D656F75740009
:1022E60074696D656F7574200A007548007548201D
:1022F6000A00000000004D0BE00CF30A200B050B52
:10230600420B6E616E00696E66006F7666002E0087
:00000001FF
